:100000000C9461000C947E000C947E000C947E0095
:100010000C947E000C947E000C947E000C947E0068
:100020000C947E000C947E000C947E000C947E0058
:100030000C947E000C947E000C947E000C947E0048
:100040000C94CD010C947E000C947E000C947E00E8
:100050000C947E000C947E000C947E000C947E0028
:100060000C947E000C947E00000000002400270009
:100070002A0000000000250028002B0000000000DE
:1000800023002600290004040404040404040202DA
:100090000202020203030303030301020408102007
:1000A0004080010204081020010204081020000012
:1000B0000008000201000003040700000000000027
:1000C000000011241FBECFEFD8E0DEBFCDBF21E07E
:1000D000A6E0B1E001C01D92A332B207E1F711E042
:1000E000A0E0B1E0ECE5FDE002C005900D92A63085
:1000F000B107D9F70E9417020C94AC060C940000CB
:10010000833081F028F4813099F08230A1F0089595
:100110008730A9F08830B9F08430D1F48091800024
:100120008F7D03C0809180008F7780938000089539
:1001300084B58F7702C084B58F7D84BD089580918A
:10014000B0008F7703C08091B0008F7D8093B000A6
:100150000895CF93DF93282F30E0F901E255FF4F48
:100160008491F901E656FF4FD491F901EA57FF4F08
:10017000C491CC2391F081110E948000EC2FF0E01B
:10018000EE0FFF1FE458FF4FA591B491EC91ED23C2
:1001900081E090E021F480E002C080E090E0DF9117
:1001A000CF9108951F93CF93DF93282F30E0F9016B
:1001B000E255FF4F8491F901E656FF4FD491F901C2
:1001C000EA57FF4FC491CC23C1F0162F81110E9432
:1001D0008000EC2FF0E0EE0FFF1FEE58FF4FA591CF
:1001E000B4919FB7F894111104C08C91D095D82385
:1001F00002C0EC91DE2BDC939FBFDF91CF911F916A
:100200000895CF93DF9390E0FC01E656FF4F2491D1
:10021000FC01EA57FF4F8491882361F190E0880F39
:10022000991FFC01E859FF4FC591D491FC01EE588C
:10023000FF4FA591B491611109C09FB7F8948881CF
:10024000209582238883EC912E230BC0623061F4C9
:100250009FB7F8948881322F309583238883EC915F
:100260002E2B2C939FBF06C08FB7F894E8812E2BBE
:1002700028838FBFDF91CF9108953FB7F894809185
:100280000B0190910C01A0910D01B0910E0126B5CA
:10029000A89B05C02F3F19F00196A11DB11D3FBFBE
:1002A000BA2FA92F982F8827820F911DA11DB11D4C
:1002B000BC01CD0142E0660F771F881F991F4A9548
:1002C000D1F70895CF93DF93EC018A810E94A900B2
:1002D000892B11F461E001C060E08A81DF91CF9148
:1002E0000C94D200CF93DF93EC0160E088810E94F0
:1002F000D20060E08A81DF91CF910C94D200CF933D
:10030000DF93EC016F3F8FEF780711F460E004C0DA
:100310006130710551F461E088810E94D20061E092
:100320008A81DF91CF910C94D200672B29F4CE0102
:10033000DF91CF910C947201DF91CF910895CF930B
:10034000DF93EC01862F688379835B834A8361E0C6
:100350000E94010161E08A810E94010160E08881C0
:100360000E94D20061E08A81DF91CF910C94D2008B
:10037000CF93DF93EC01888599850E94720161E03B
:1003800070E08A859B850E947F016FEF7FEF8C85EF
:100390009D85DF91CF910C947F011F920F920FB634
:1003A0000F9211242F933F938F939F93AF93BF93FB
:1003B0008091070190910801A0910901B0910A0173
:1003C0003091060123E0230F2D3720F40196A11D63
:1003D000B11D05C026E8230F0296A11DB11D209373
:1003E00006018093070190930801A0930901B0933F
:1003F0000A0180910B0190910C01A0910D01B09127
:100400000E010196A11DB11D80930B0190930C016B
:10041000A0930D01B0930E01BF91AF919F918F9169
:100420003F912F910F900FBE0F901F9018957894C9
:1004300084B5826084BD84B5816084BD85B58260E9
:1004400085BD85B5816085BD80916E00816080939A
:100450006E00109281008091810082608093810003
:100460008091810081608093810080918000816013
:10047000809380008091B10084608093B10080916E
:10048000B00081608093B00080917A008460809396
:100490007A0080917A00826080937A0080917A005D
:1004A000816080937A0080917A00806880937A00DE
:1004B0001092C1008FE090E00E948B05EC0180E17A
:1004C00090E09B838A83198218821D821C821E827F
:1004D0000E943D016F83788789879A871B861C86D7
:1004E0001D861E8660E08A810E940101D0931E0154
:1004F000C0931D0188E090E00E948B058C0182E092
:1005000090E0D80111969C938E938BE490E0159621
:100510009C938E93149724E1622E712C13967C92F7
:100520006E9212971796DC93CE93169710931C0138
:1005300000931B0182E090E00E948B057C0181E129
:1005400090E0F7019183808360E00E940101F092C6
:100550001401E092130181E190E00E948B056C018F
:100560008BE090E0D60113969C938E93129761E0F6
:100570000E940101F601D183C083F582E4821186D5
:100580001286138614860E943D01F60165877687E0
:100590008787908B168210861782D0921A01C0929C
:1005A000190182E090E00E948B056C018FE090E0E1
:1005B000D6018D939C93D0921201C092110182E0DA
:1005C00090E00E948B055C0182E190E0F50191834F
:1005D0008083B0921001A0920F0184E090E00E940D
:1005E0008B054C018CE090E0D40113969C938E9384
:1005F000129761E00E940101F401D183C0839092BF
:1006000018018092170184E290E00E948B05EC01B2
:10061000B982A882FB82EA821D830C83DF82CE82AC
:1006200084E090E00E948B058C0146E050E067E09A
:1006300070E00E949F011987088784E090E00E9483
:100640008B058C0144E050E065E070E00E949F0162
:100650001B870A8784E090E00E948B058C0142E0B2
:1006600050E063E070E00E949F011D870C8785E1E8
:1006700090E09F878E87798A688A83E190E09B8BE0
:100680008A8B0E943D016C8B7D8B8E8B9F8B188E8D
:10069000198E1A8E1B8E1D8E1C8E1F8E1E8EEC8147
:1006A000FD818481958199A388A3828193819BA3F5
:1006B0008AA3D0931601C093150102E010E0EE2446
:1006C000E394F12C44E1C42ED12C59E1252E312C98
:1006D00064E6462E512CBB24B3948BE4682E712C17
:1006E00092E4A92EC0911D01D0911E010E943D01EE
:1006F0002F81388549855A85DC01CB01821B930BFC
:10070000A40BB50B8B879C87AD87BE878C819D81A1
:10071000892B11F01D821C828A810E94A9002E81E2
:10072000019789F5211153C0BE824B855C856D858B
:100730007E85888199814139504D63407105C8F0AB
:10074000009719F41D821C820AC08130910519F4AA
:100750009D838C8304C0029714F01D830C830E9438
:100760003D016F83788789879A87F982E8821E82A4
:100770002EC00196998388830E943D016F837887FC
:1007800089879A8724C021111E828B859C85AD851F
:10079000BE858139904DA340B105C8F0888199810B
:1007A000009719F41D821C820AC08130910519F44A
:1007B0009D838C8304C0029714F01D830C830E94D8
:1007C0003D016F83788789879A8719821882E09123
:1007D0001B01F0911C01A681B78114962D913C91CB
:1007E00015972230310561F4808191818130910526
:1007F00009F0FEC031832083D382C2827582648275
:10080000C0911901D0911A01E881F9818481958103
:10081000019709F405C1A0927C0080917A00806460
:1008200080937A0080917A0086FDFCCF2091780039
:100830008091790030E0382B4CE94203C001439F9E
:10084000900D11246FEF73E00E946305672B61F137
:100850000E943D012D853E854F855889DC01CB01E5
:10086000821B930BA40BB50B89879A87AB87BC8738
:100870008E81811106C0BE828A810E94A90098875C
:100880008F8389859A85AB85BC85813A9648A1403E
:10089000B105C8F0CE010E9462010E943D016D8742
:1008A0007E878F87988B0FC08E81882361F01E8290
:1008B0008F8098848A810E94A9008816990619F071
:1008C000CE010E9462018091170190911801DC0114
:1008D000ED91FC91248135812130310509F4A4C0CA
:1008E000C0911501D09116010E943D012C893D89CE
:1008F0004E895F89DC01CB01821B930BA40BB50BE6
:10090000888F998FAA8FBB8F813D9740A105B10534
:1009100008F466C00E943D016C8B7D8B8E8B9F8B93
:100920008E850E94A900019759F488890E94A90028
:10093000892B31F48A890E94A900019709F477C0B4
:100940008E850E94A900892B59F488890E94A900EC
:10095000892B31F48A890E94A900019709F478C093
:100960008E850E94A900892B59F488890E94A900CC
:10097000019731F48A890E94A900019709F479C08E
:100980008E850E94A900892B59F488890E94A900AC
:10099000019731F48A890E94A900892B09F46DC05E
:1009A0008E850E94A900019759F488890E94A900A8
:1009B000019731F48A890E94A900892B09F461C04A
:1009C0008E850E94A900019759F488890E94A90088
:1009D000892B31F48A890E94A900892B09F462C00D
:1009E00080E090E0892B09F47DCE0E94000073CE58
:1009F0008230910549F483E090E0918380833382D3
:100A0000228255824482FCCE039709F0F9CEF1820E
:100A1000E082D382C282A2E3B0E0B583A483F0CEA9
:100A2000CE010E946201F7CE0E94620159CF61E0BF
:100A300070E0888599850E947F018A859B850E9448
:100A400072016FEF7FEF8C859D850E947F0178CFCB
:100A50006FEF7FEF888599850E947F018A859B854E
:100A60000E94720161E070E08C859D850E947F018B
:100A700077CFCE010E94B80183CFCE010E94B8018A
:100A80008FCF6FEF7FEF888599850E947F0161E0AE
:100A900070E08A859B850E947F018C859D850E94E0
:100AA00072018ECF61E070E0888599850E947F0198
:100AB0006FEF7FEF8A859B850E947F018C859D85E6
:100AC0000E9472018DCF97FB072E16F4009407D079
:100AD00077FD09D00E94770507FC05D03EF490957C
:100AE00081959F4F0895709561957F4F0895AA1B3A
:100AF000BB1B51E107C0AA1FBB1FA617B70710F009
:100B0000A61BB70B881F991F5A95A9F7809590953A
:100B1000BC01CD0108950F931F93CF93DF938230D3
:100B2000910510F482E090E0E0912101F091220122
:100B300020E030E0A0E0B0E0309719F14081518131
:100B40000281138148175907C8F08417950769F483
:100B5000109731F012960C93129713961C9327C09E
:100B6000009321011093220122C02115310519F0B3
:100B70004217530718F49A01BD01EF01DF01F80194
:100B8000DBCF21153105F9F0281B390B2430310555
:100B900080F48A819B816115710521F0FB019383AB
:100BA000828304C09093220180932101FE0132963A
:100BB00044C0FE01E20FF31F81939193225031094B
:100BC000398328833AC020911F0130912001232BC3
:100BD00041F42091020130910301309320012093D0
:100BE0001F0120910001309101012115310541F4CF
:100BF0002DB73EB74091040150910501241B350BE0
:100C0000E0911F01F0912001E217F307A0F42E1BE1
:100C10003F0B2817390778F0AC014E5F5F4F241760
:100C2000350748F04E0F5F1F5093200140931F017E
:100C30008193919302C0E0E0F0E0CF01DF91CF918A
:100C40001F910F910895CF93DF93009709F481C00E
:100C5000FC01329713821282A0912101B0912201EE
:100C6000109781F420813181820F931F20911F0101
:100C7000309120012817390751F5F0932001E093B6
:100C80001F0167C0ED0120E030E0CE17DF0740F420
:100C90004A815B819E0141155105F1F0EA01F5CFD2
:100CA000D383C28340815181840F951FC817D90710
:100CB00059F488819981840F951F029691838083CE
:100CC0008A819B81938382832115310529F4F093D6
:100CD0002201E09321013DC0E901FB83EA834991B0
:100CE0005991C40FD51FEC17FD0761F480819181E4
:100CF000840F951F0296E9019983888382819381ED
:100D00009B838A83E0E0F0E012968D919C9113978B
:100D1000009719F0FD01DC01F7CF8D919C9111979F
:100D20009D012E5F3F4F820F931F20911F01309135
:100D300020012817390769F4309729F4109222010D
:100D40001092210102C013821282B0932001A0935D
:0C0D50001F01DF91CF910895F894FFCFB0
:060D5C00000023018000ED
:00000001FF
